:10142C002C63757272656E743A20002C206170709A
:10143C00726F616368203A20000D0A002C46494EF9
:10144C004953482021000D0A0D0A004C45443A32FC
:10145C003030306D730D0A006C6F676765723A310E
:08146C003030306D730D0A00F1
:101173004100120041001800C10142001A0000445E
:1011830000640000000042003100004200780000CB
:1011930042002D000042002F000041006303440081
:1011A30068000000004400740000000041002C00AF
:1011B300420000000042000200004200040000421E
:1011C3000006000041000A0041000B0041000C0032
:1011D30041000F00410010004F0033FF164FFF1274
:0E11E300D8FF1534FF14740000004100110005
:0B14F60090009DEBF0A3EAF0A3E9F0EA
:10150100E4FFFE90009DE0FBA3E0FAA3E0F98F82E7
:101511008E831203BB601B90009DE0A3E0A3E00F4C
:10152100EFAC0670010E14F5828C831203BBF599A2
:0215310080D167
:011533002295
:040DA200AB07AA06EB
:100DA600900099E4F0A3740FF0900099E0FEA3E0A0
:100DB6002489F58274003EF583E4F0EBAE02781FD9
:100DC600CEC313CE13D8F9FF90009BEEF0A3EFF03D
:100DD6004E600DEBF4FFEAF4FEEF2401FBE43EFA6D
:100DE60090009AE024FFF0900099E034FFF07C0038
:100DF6007D0AAF03AE021203E8ED2430FFE0FCA348
:100E0600E02489F58274003CF583EFF07C007D0ACE
:100E1600AF03AE021203E8AA06AB07EB4A70C19015
:100E2600009BE07002A3E0601E90009AE024FFF0B1
:100E3600900099E034FFF0E0FEA3E02489F5827487
:100E4600003EF583742DF0900099E0FEA3E024891E
:0A0E5600F974003EFA7B011214F655
:010E6000226F
:06005400A292B392922279
:0700030053B3FB43B40422D8
:100B9800A2AF9200C2AF75C7AA75C755439F01A2FD
:100BA8000092AF75AF0475A60DE4F5A7A2AF920049
:100BB800C2AF75C7AA75C75543A401A20092AFADCD
:100BC800AEED54F090007CF0ED540FFD75A60CE4EA
:100BD800F5A7A2AF9200C2AF75C7AA75C75543A4BF
:100BE80001A20092AFAFAEEF75F010A47C002DFD0E
:100BF800EC35F0FCE4120301900014120589E4FFBF
:100C0800FE7D407C40900014E0F8A3E0F9A3E0FAF0
:100C1800A3E0FB120156E4FBFA7980784012025FE8
:100C2800900070120589A2AF9200C2AF75C7AA756D
:100C3800C755539FFEA20092AF43E80853E8F84314
:100C4800E10143E13043E20E43A210C2EFD2EE309D
:100C5800EFFD900013E5C3F0900019E5C2F0AFC3B3
:100C6800EF75F010A4ADC27C002DFDEC35F0FCE46E
:100C7800120301AB07AA06A905A804E4FFFE7D80BC
:100C88007C4512025F900070E0F8A3E0F9A3E0FA57
:0C0C9800A3E0FB12015690006C120589CD
:010CA400222D
:050F170090007FEDF0E9
:100F1C00E4A3F0900063E0602F24FE6003020FB79F
:100F2C00E4900080F0900080E0C39F501420EFFD0F
:100F3C00E4900031F0A3F0D2EE900080E004F08059
:100F4C00E4E4900063F08063E4900080F090007F14
:100F5C00E0FFA3E0C39F503820EFFD900064E0F861
:100F6C00A3E0F9A3E0FAA3E0FB900031E0FEA3E0DC
:100F7C00FFE4FCFDEB2FFFEA3EFEED39FDEC38FC07
:100F8C00900064120589D2EE900080E004F080BDE0
:100F9C00900064E0FCA3E0FDA3E0FEA3E0FF780377
:100FAC0012057690001AEEF0A3EFF0900064120593
:0D0FBC00950000000090001AE0FEA3E0FF89
:010FC9002205
:100A8800900063E0147003020B0F046003020B8FE5
:100A980020EFFD900064E0F8A3E0F9A3E0FAA3E0FA
:100AA800FB900031E0FEA3E0FFE4FCFDEB2FFFEA42
:100AB8003EFEED39FDEC38FC90006412058990008B
:100AC80000E475F001120473AFF0FEE4FCFD7B074F
:100AD800FAF9F8D31205654003020B8FE490000081
:100AE800F0A3F0900064E0FCA3E0FDA3E0FEA3E027
:100AF800FF780312057690001AEEF0A3EFF090004D
:100B0800637401F0020B8F20EFFD900064E0FCA3FA
:100B1800E0FDA3E0FEA3E0FFC006C00790001AE0D6
:100B2800FEA3E0FFFBAA06E4D007D006C3EF9BFFB5
:100B3800EE9AFEED9400FDEC9400FC900064120522
:100B480089900064E0F8A3E0F9A3E0FAA3E0FB9041
:100B58000031E0FEA3E0FFE4FCFDEB2FFFEA3EFEE0
:100B6800ED39FDEC38FC900064120589900064E0D2
:100B7800FCA3E0FDA3E0FEA3E0FF78031205769056
:0F0B8800001AEEF0A3EFF090001AE0FEA3E0FFDA
:010B9700223B
:101690009000637402F0A312059500000000E4902E
:0616A000001AF0A3F02285
:10002600E4FDFCAD07AC0612030190006CE0F8A3FA
:10003600E0F9A3E0FAA3E0FB1201567B007AF0791F
:0D0046007F784512025F12033AAC06AD0749
:01005300228A
:0807A70090007FEEF0A3EFF0DB
:1007AF00E4A3F0A3F0A3F0A3F090006CE0FCA3E0AF
:1007BF00FDA3E0FEA3E0FF12033A900085EEF0A345
:1007CF00EFF0E4A3F0A3F0A3F0A3F0A3F0A3F0A342
:1007DF00F0A37464F090002DEEF0A3EFF09000857D
:1007EF00E0FEA3E0FF7C107D001205CCC006C00721
:1007FF0090002DE0FEA3E0FFFBAA06E4F9F8D00776
:10080F00D0061204C5900081EEF0A3EFF0900087A0
:10081F00E0FEA3E0FF7C107D001205CCC006C007F0
:10082F0090002DE0FEA3E0FFFBAA06E4F9F8D00745
:10083F00D0061204C5900083EEF0A3EFF090007F76
:10084F00E0FCA3E0FDD39FEC9E500A900083E0FEF6
:10085F00A3E0FF8004AE04AF0590008BEEF0A3EF92
:10086F00F0900081E0FCA3E0FDD39FEC9E5006AE1C
:10087F0004AF05800890008BE0FEA3E0FF90008B93
:10088F00EEF0A3EFF0900083E0FCA3E0FDC3EF9D3B
:10089F00FDEE9CFCE4120301C004C005C006C007B6
:1008AF0090008DE0FCA3E0FDE4120301D003D00221
:1008BF00D001D000120156C004C005C006C0079079
:1008CF000083E0FEA3E0FFC3900082E09FFD900055
:1008DF0081E09EFCE4120301A804A905AA06AB0758
:1008EF00D007D006D005D00412025FE4FBFA79805E
:1008FF00783F12006512033A900089EEF0A3EFF0F3
:10090F00E4FCFD7B64FAF9F8D312056550067E000E
:10091F007F648008900089E0FEA3E0FF900089EEDD
:04092F00F0A3EFF052
:0109330022A1
:100E6100E490007BF0A3F090007DF0A3F090006C83
:100E7100E0FCA3E0FDA3E0FEA3E0FF12033A900033
:100E81002DEEF0A3EFF0E4900078F0A3F07D087F61
:100E910004120F1790007BEEF0A3EFF0900078E0C2
:100EA100FEA3E0FFD390007CE09F90007BE09E508A
:100EB10002800890007BE0FEA3E0FF90007BEEF053
:100EC100A3EFF090007BE0FEA3E0FFE4FCFDFB7AE2
:100ED10010F9F8D312056550067E107F0080089046
:100EE100007BE0FEA3E0FF90007BEEF0A3EFF0902B
:100EF100007BE0FEA3E0FF1207A790007DEEF0A3C8
:100F0100EFF090007BE0FEA3E0FF12002690007B53
:050F1100E0FEA3E0FF7B
:010F160022B8
:03005B0002138FFE
:10138F00C0E0C0F0C083C082C0D075D000C004C020
:10139F0005C006C007C091AFC3EF75F010A4ADC272
:1013AF007C002DFFEC35F0A2E713FEEF1325E0FFD5
:1013BF00EE33900031F0A3EFF0C2EFD091D007D011
:1013CF0006D005D004D0D0D082D083D0F0D0E03278
:100CA50090007BEFF0120B9890007BE0B4080040B9
:100CB50003020D8D900CC0F8282873020CD8020C85
:100CC500ED020D05020D1C020D33020D4A020D61E8
:100CD500020D7853E8F043B38053B47FE4F5F6434F
:100CE500F60143E101020D8D53E8F043E80143AC01
:100CF5000153ADFEE4F5F643F60243E101020D8D25
:100D050053E8F043E80243B18053B27FE4F5F6437C
:100D1500F60443E101807153E8F043E80343B14031
:100D250053B2BFE4F5F643F60843E101805A53E8B0
:100D3500F043E80443B12053B2DFE4F5F643F6107F
:100D450043E101804353E8F043E80543B11053B252
:100D5500EFE4F5F643F62043E101802C53E8F04338
:100D6500E80643B10853B2F7E4F5F643F64043E12C
:100D750001801553E8F043E80743B30253B4FDE49B
:100D8500F5F643F68043E10143E13043E20E53A219
:0D0D9500EFC2EFD2EED2AED2AF1216902216
:0300230002162D95
:10162D00C0E0C083C08230980AD201900042E59993
:10163D00F0C298309905200202C299D082D083D091
:02164D00E03289
:1010F20090007B1205950001C20053B1BF53B2BFED
:1011020075985043878053C4F843C42090007BE015
:10111200F8A3E0F9A3E0FAA3E0FB7F607EE37D168B
:101122007C001204C5C3E49FFFE49EFE74019DFD92
:10113200E49CFC78081205768FC690007BE0F8A349
:10114200E0F9A3E0FAA3E0FB7F607EE37D167C007A
:101152001204C5C3E49FFFE49EFE74019DFDE49C5E
:10116200FCEFE48FC543C408D2ACD2AFD299D2020D
:01117200225A
:1011F20090007B12058990004312059500000000C3
:101202009000471205950000000090004B120595D2
:101212000000000090004F120595000000009000B1
:101222007BE0FCA3E0FDA3E0FEA3E0FF90005312ED
:10123200058990007FE0FCA3E0FDA3E0FEA3E0FFB0
:10124200900057120589900083E0FCA3E0FDA3E023
:10125200FEA3E0FF90005B12058990005F120595E6
:05126200000000002265
:10093400900043120589900047E0F8A3E0F9A3E092
:10094400FAA3E0FB900043E0FCA3E0FDA3E0FEA3D8
:10095400E0FF12006190004B12058990005FE0F8FF
:10096400A3E0F9A3E0FAA3E0FB90004BE0FCA3E0D2
:10097400FDA3E0FEA3E0FF120061900053E0F8A3A2
:10098400E0F9A3E0FAA3E0FB120156C004C005C0DD
:1009940006C00790004BE0FCA3E0FDA3E0FEA3E04B
:1009A400FF900057E0F8A3E0F9A3E0FAA3E0FB12FC
:1009B4000156D003D002D001D000120065C004C09B
:1009C40005C006C007E4FFFEFD7C4090005FE0F830
:1009D400A3E0F9A3E0FAA3E0FB120156A804A905D9
:1009E400AA06AB0790004BE0FCA3E0FDA3E0FEA346
:1009F400E0FF12006190004FE0F8A3E0F9A3E0FAF1
:100A0400A3E0FB12006590005BE0F8A3E0F9A3E02B
:100A1400FAA3E0FB120156D003D002D001D0001299
:100A24000065900089120589900047E0FCA3E0FD71
:100A3400A3E0FEA3E0FF900089E0F8A3E0F9A3E0BF
:100A4400FAA3E0FB12006590004712058990005F4D
:100A5400E0FCA3E0FDA3E0FEA3E0FF90004F12053D
:100A64008990004BE0FCA3E0FDA3E0FEA3E0FF902F
:100A7400005F120589900047E0FCA3E0FDA3E0FEBF
:030A8400A3E0FFED
:010A8700224C
:10060500900081EEF0A3EFF0E4A3F0A3F0A3F0A334
:10061500F0A3F0A3F090007DE0FCA3E0FDA3E0FED5
:10062500A3E0FF12033A900006E06E7003A3E06FAB
:1006350070030207A6900004EEF0A3EFF07C007DA6
:100645000A1203E8900085ECF0A3EDF090002CE091
:1006550054FDF090002CE030E1047F0180027F0022
:10066500EF600302078D900004E0FCA3E0FDE412B7
:10067500030112093412033A900083EEF0A3EFF060
:10068500900006E0FEA3E0FF900004E0FCA3E0FD7F
:10069500C39FEC9E4008ED9FFFEC9EFE80159000E9
:1006A50004E0FEA3E0FFC3900007E09FFF90000673
:1006B500E09EFE900087EEF0A3EFF0C3900086E089
:1006C5009F900085E09E4010900003E02401FF907C
:1006D5000002E03400FE8008900002E0FEA3E0FF87
:1006E500900002EEF0A3EFF07BFF7A14792C121440
:1006F500F6900004E0FEA3E0FF120DA27BFF7A1442
:1007050079371214F6900083E0FEA3E0FF120DA2E4
:100715007BFF7A1479451214F6900004E0FEA3E0FD
:10072500FF900083E0FCA3E0FDC39FEC9E4008ED35
:100735009FFFEC9EFE8015900083E0FEA3E0FFC3C3
:10074500900005E09FFF900004E09EFE900087EE7C
:10075500F0A3EFF0D39401EE940040030206587B1A
:10076500FF7A1479451214F67BFF7A14794812142E
:10077500F67BFF7A1479521214F690002CE04402AD
:10078500F0E4900002F0A3F090007DE0FCA3E0FD12
:10079500A3E0FEA3E0FF12033A900006EEF0A3EFFC
:0107A500F063
:0107A6002230
:1012D80090000AE024F7601324FB6021240E704577
:1012E80090000A7409F0603D7F0122E4900008F044
:1012F800A3F090000A740EF0601D7FC822900009C8
:10130800E004F07006900008E004F0900008E07037
:1013180004A3E0640A70DB7BFF7A1479571214F691
:0C13280012005480BBE490000AF07FFF2C
:011334002296
:1015340090000BE024E3600F241D702A90000B74CC
:101544001DF060227F0122120E6112141D1213DF9E
:101554007C0F7DFF12043DED2401FEE43C90002F3E
:0D156400F0A3CEF080D6E490000BF07FFFE6
:011571002257
:1014740090000CE024CF600F2431702E90000C7487
:1014840031F060267F01221216A6900068120589A9
:1014940090002FE0FCA3E0FDE412030190007D1214
:1014A4000589E4FFFE12060580D2E490000CF07F6B
:0114B400FF38
:0114B5002214
:1013350090000FE024B3601324FB60212452704217
:1013450090000F744DF0603A7F0122E490000DF09B
:10135500A3F090000F7452F0601D7F642290000E80
:10136500E004F0700690000DE004F090000DE070D0
:1013750004A3E0640A70DB7BFF7A1479641214F627
:0913850080BEE490000FF07FFF30
:01138E00223C
:10164F00900010E024956004246B700D90001074CE
:10165F006BF060057F012280F3E4900010F07FFFB4
:01166F002258
:1015E30090007B7410F090007BE0FFD394004014D4
:1015F300741B2FF582E43400F583E4F090007BE064
:0416030014F080E27D
:0116070022C0
:1012670090001CE0700812164F90001CEFF09000E1
:10127700117401F0900011E0FF75F003A42433F519
:1012870082E43400F583E0FBA3E0FAA3E04A4B6075
:10129700CF741C2FF582E43400F583E0702A9000A8
:1012A70011E075F003A42433F582E43400F583E0FC
:1012B700A3E0FAA3E0F91205C6900011E0241CF59B
:1012C70082E43400F583EFF0900011E004F080A48D
:0112D70022F4
:1015720090007A7410F090007AE0FFD39400402932
:10158200741B2FF582E43400F583E0FF6013F460EE
:101592001090007AE0241BF582E43400F583E01415
:0915A200F090007AE014F080CD15
:0115AB00221D
:10167000900074E0FCA3E0FDA3E0FEA3E02401FFE2
:10168000E43EFEE43DFDE43CFC900074120589223A
:0F16A600900074E0FCA3E0FDA3E0FEA3E0FF22B0
:0416B5001216702277
:03000B000214B626
:1014B600C0E0C0F0C083C082C0D075D000C000C0FC
:1014C60004C005C006C007900012E0F58C90001815
:1014D600E0F58AC28D1216B5121572D007D006D065
:1014E60005D004D000D0D0D082D083D0F0D0E03266
:10160800E490007BF0A3F05389F043890190001225
:1016180074F8F09000187430F0758CF8F58AD2A937
:04162800D2AFD28CDF
:01162C00229B
:10106400E58720E4030210F1A2AF9200C2AF75C776
:10107400AA75C755439F01A20092AF75A638E4F53F
:10108400A775AF04A2AF9200C2AF75C7AA75C755C2
:1010940043A401A20092AF85AE0875A639F5A7A2B4
:1010A400AF9200C2AF75C7AA75C75543A401A20089
:1010B40092AF85AE09A2AF9200C2AF75C7AA75C739
:1010C40055539FFEA20092AF75C7AA75C7558508F0
:1010D4008475C7AA75C755850985A2AF9200C2AFAA
:0D10E40075C7AA75C755539FFEA20092AFB5
:0110F10022DC
:10000E00121064E4F5B1F5B2F5B3F5B4F5ACF5AD97
:03001E00D2AF223C
:1015AC0012000E1210F27F05120CA5120003121677
:1015BC000890007F1205953C75C28F900083120530
:1015CC00953E4CCCCD7FCD7ECC7D4C7C3E1211F229
:0715DC001215E31212672251
:03000000020FCA22
:100FCA00787FE4F6D8FD9000007FFF7E03E4F0A36B
:0A0FDA00DFFCDEFA75812002101F13
:10005E000203A6E86480F8E933E83360110460F027
:10006E00ED33EC337009E8FCE9FDEAFEEBFF220408
:10007E0060DED3EB9FEA9EE99DE8C2E78CF0C2F703
:10008E0095F0400CE8CCF8E9CDF9EACEFAEBCFFBCF
:10009E0012037185D0F05804700320D5B3E80470B4
:1000AE00075002B2D50203B092D5EC0460F7E4CC4F
:1000BE00C0E0C398F8603B94186008400DD0E0FB98
:1000CE00020388E4FBFAC9FC8028E830E406E4C9A0
:1000DE00FBE4CAFCE830E305E4C9CACBFCE85407EC
:1000EE006010F8C3E913F9EA13FAEB13FBEC13FCF7
:1000FE00D8F130F52FC3E49CFCEF9BFFEE9AFEED9A
:10010E0099FDD0E0FBEF4E4D4C701222DB03020343
:10011E00ADEC2CFCEF33FFEE33FEED33FDED30E7AF
:10012E00EB020388EF2BFFEE3AFEED39FDD0E0FB3C
:10013E0050130BBB00030203B0ED13FDEE13FEEFE5
:08014E0013FFEC13FC0203880F
:10015600EC4D6011E8497017ED33EC3304600DE4A3
:10016600FCFFFEFD22E933E8330470F80203A61211
:10017600037158046009E4CC248150062850090212
:1001860003B02840030203ADC0E0EB4A7044B980D7
:1001960006D0E0FB02039CEF4E701CBD8008EBFF0F
:1001A600EAFEE9FD80EBE98DF0A4FEE5F002023FF0
:1001B600E9CDF9EAFEEBFFEF89F0A4FCE5F0CE8984
:1001C600F0A42EFFE435F0CD89F0A42DFEE435F041
:1001D6008067EF4E7005BD80D780C3EF8BF0A4AC6F
:1001E600F0EE8BF0A42CFCE435F0F8EF8AF0A42CAA
:1001F600E5F038FCE433CB8DF0A42CFCE5F03BF8BD
:10020600EE8AF0A42CFCE5F038F8E433CF89F0A4AC
:100216002CFCE5F038CF3400CE89F0A42FFFE5F0B2
:100226003EFEE433C98DF0A42EFEE5F039CD8AF00A
:10023600A42FFFE5F03EFEE43DFD33D0E0FB500782
:100246000BBB000F0203B0EC2CFCEF33FFEE33FECA
:06025600ED33FD020388F8
:10025C000203B0EC5D046005E8590470030203A6C8
:10026C00120371580460F6EC4860F2EC7004FDFE69
:10027C00FF22C860DB2481C85009C3986002500675
:10028C000203AD9850CAF582E9294B4A7005AB823E
:10029C0002039C75F0007C1A7880C3EF9BEE9AEDFC
:1002AC0099400DC3EF9BFFEE9AFEED99FDE842F0ED
:1002BC00DC23ACF0D0E0FFD0E0FED0E0FDAB822040
:1002CC00E7101BEB60BAEC2CFCEF33FFEE33FEEDCA
:1002DC0033FD020388E803F830E705C0F075F00041
:1002EC00EF2FFFEE33FEED33FD40B830E7C280AAAE
:1002FC0075F020800E75F010800575F0087D007E7D
:10030C00007F003392D530D503120557EC334010E3
:10031C00EF33FFEE33FEED33FDEC33FCD5F0ED2285
:0E032C00E5F0247EA2D513CC92E7CDCEFF22C1
:10033A00EDD2E7CD33EC3392D524814006E4FFFEBB
:10034A00FDFC22FCE4CFCECDCC24E0501174FF801A
:10035A00EDC3CC13CCCD13CDCE13CECF13CF0470B7
:07036A00F030D5DE0205575B
:10037100E9D2E7C933E833F892D5EDD2E7CD33ECD2
:0703810033FC5002B2D5224B
:10038800EC30E7100FBF000C0EBE00080DBD0004D6
:100398000BEB6014A2D5EB13FCED92E7FD2274FF82
:1003A800FCFDFEFF22E480F8A2D574FF13FC7D80DB
:0303B800E480EFEF
:100FE4000215ACE493A3F8E493A34003F68001F262
:100FF40008DFF48029E493A3F85407240CC8C3330E
:10100400C4540F4420C8834004F456800146F6DFDC
:10101400E4800B0102040810204080901173E47EE8
:10102400019360BCA3FF543F30E509541FFEE493D1
:10103400A360010ECF54C025E060A840B8E493A398
:10104400FAE493A3F8E493A3C8C582C8CAC583CAC3
:10105400F0A3C8C582C8CAC583CADFE9DEE780BE7B
:0111F10000FD
:1003BB00BB010CE58229F582E5833AF583E02250F7
:1003CB0006E92582F8E622BBFE06E92582F8E22241
:0D03DB00E58229F582E5833AF583E493225B
:1003E800BC000BBE0029EF8DF084FFADF022E4CCF9
:1003F800F875F008EF2FFFEE33FEEC33FCEE9DECC2
:10040800984005FCEE9DFE0FD5F0E9E4CEFD22ED07
:10041800F8F5F0EE8420D21CFEADF075F008EF2F51
:10042800FFED33FD4007985006D5F0F222C398FD42
:050438000FD5F0EA22DF
:10043D00C2D5EC30E709B2D5E4C39DFDE49CFCEEDA
:10044D0030E715B2D5E4C39FFFE49EFE1203E8C367
:10045D00E49DFDE49CFC80031203E830D507C3E462
:06046D009FFFE49EFE2249
:10047300A3F8E0C5F025F0F0E5821582700215833C
:06048300E0C838F0E82299
:1004890075F008758200EF2FFFEE33FECD33CDCC2A
:1004990033CCC58233C5829BED9AEC99E5829840AD
:1004A9000CF582EE9BFEED9AFDEC99FC0FD5F0D68A
:1004B900E4CEFBE4CDFAE4CCF9A88222B800C1B9B4
:1004C9000059BA002DEC8BF084CFCECDFCE5F0CBF2
:1004D900F97818EF2FFFEE33FEED33FDEC33FCEB2B
:1004E90033FB10D703994004EB99FB0FD8E5E4F9E6
:1004F900FA227818EF2FFFEE33FEED33FDEC33FCD3
:10050900C933C910D7059BE99A4007EC9BFCE99AC6
:10051900F90FD8E0E4C9FAE4CCFB2275F010EF2F0B
:10052900FFEE33FEED33FDCC33CCC833C810D7070B
:100539009BEC9AE899400AED9BFDEC9AFCE899F846
:0E0549000FD5F0DAE4CDFBE4CCFAE4C8F922D9
:0E055700C3E49FFFE49EFEE49DFDE49CFC22B5
:10056500EB9FF5F0EA9E42F0E99D42F0E89C45F0EC
:010575002263
:10057600E8600FECC313FCED13FDEE13FEEF13FF63
:03058600D8F12287
:0C058900ECF0A3EDF0A3EEF0A3EFF022E5
:10059500A8828583F0D083D0821205AC1205AC12F7
:1005A50005AC1205ACE473E493A3C583C5F0C5831C
:1005B500C8C582C8F0A3C583C5F0C583C8C582C8B0
:0105C5002213
:0605C6008A838982E473C0
:1005CC00EC8EF0A4CCC5F0CCCDF8EFA4CEC5F02DBC
:1005DC00FDE43CFCE8A42EC8C5F03DFDE43CFCEF7A
:0D05EC00A4FFE5F028FEE43DFDE43CFC2208
:1013DF009000A01205F97810EC4D4E4F70047CA5CB
:1013EF007DA5C3EC13FCED13FDEE13FEEF13FF50C1
:1013FF0010EC64CCFCED644CFDEE644EFEEF64CE5D
:10140F00FFD8DF9000A0120589EE547FFE229000D6
:0D141F00A0EEF0EFA3F0A374A5F0A3F0225F
:0C05F900E0FCA3E0FDA3E0FEA3E0FF2275
:00000001FF
